:020000040800F2
:10840000005000203D9B00089596000897960008B4
:10841000999600089B9600089D96000800000000B1
:108420000000000000000000000000009F9600080F
:10843000A196000800000000A3960008A596000879
:10844000859B0008859B0008859B0008859B00088C
:10845000859B0008859B0008859B0008859B00087C
:10846000859B0008859B0008859B0008859B00086C
:10847000859B0008A9960008859B0008859B00083D
:10848000B5960008C1960008859B0008859B0008EA
:10849000CD960008859B0008859B0008859B0008F9
:1084A000859B0008859B0008859B0008859B00082C
:1084B000859B0008859B0008859B0008859B00081C
:1084C000859B0008859B0008859B0008859B00080C
:1084D000859B0008859B0008859B0008859B0008FC
:1084E000D9960008859B0008859B000800000000C5
:1084F000000000000000000000000000000000007C
:0C85000000000000000000005FF808F11F
:10850C0010B5054C237833B9044B13B10448AFF3C1
:10851C0000800123237010BD20000020000000000B
:10852C003CB6000808B5034B1BB103490348AFF335
:10853C00008008BD00000000240000203CB60008AC
:10854C00104B07B5DA69104842F00072DA61DB694A
:10855C000E4A03F000730193019B1023C0E9002322
:10856C000023C0E90233C0E904338361838301F043
:10857C005FFB20B103B05DF804EB00F015BD03B058
:10858C005DF804FB001002403C0000200064004039
:10859C0010B5044686B01022002102A803F00DF895
:1085AC002268194B9A422DD103F5D633DA69174854
:1085BC0042F00072DA61DA6902A902F000720092EC
:1085CC00009A9A6942F004029A619B6903F00403D1
:1085DC000193019B4FF40063029302F0C3F84FF434
:1085EC0080520223CDE902230323084802A90593F4
:1085FC0002F0B8F800221420114601F039FE1420C4
:10860C0001F066FE06B010BD006400400008014099
:10861C00124B07B55A690D2042F001025A61002233
:10862C005B69114603F001030193019B01F020FEED
:10863C000D2001F04DFE00221020114601F018FE15
:10864C00102001F045FE00221120114601F010FE11
:10865C00112003B05DF804EB01F03ABE00100240AB
:10866C004FF000634FF48060054A0649136003F530
:10867C0080638B42908002F10802F7D10120704791
:10868C0064000020000002080023F0B5244A4FF0DB
:10869C00FF361C461746314487B00144D2F800C05F
:1086AC00B2F804E00CF1FF356045754434D88C45C4
:1086BC008CBF4FF0000E4FF0010EA84205D88D4232
:1086CC0098BF4FF0010E604506D28C4501D88D4203
:1086DC0002D2BEF1000F03D0751C08BF1EB20134CC
:1086EC000133802B02F10802D8D194B101F03CFF88
:1086FC0000220123CDE9022357F8363001A902A844
:10870C00CDE9043401F0DAFFB0FA80F4640901F029
:10871C003DFF204607B0F0BD4FF0000ECDE700BF87
:10872C0064000020F8B50C4607461646002501F0FB
:10873C001BFF0134AE4204D8012401F027FF204670
:10874C00F8BD6B1C9E4288BF237814F8012C4FF0A7
:10875C00010088BF42EA03227919002301F04AFF85
:10876C00023408B90235E5E70024E6E708B50B4604
:10877C000146184602F04EFF012008BD10222DE9DB
:10878C00F04389B00DEB0200002102F016FF364BCE
:10879C00DFF8D8909A69364F42F010029A619A69C4
:1087AC00484602F010020092009A9A69DFF8C480E1
:1087BC0042F020029A619A69202102F02002019273
:1087CC00019A9A69002442F004029A619A6901267E
:1087DC0002F004020292029A9A69022542F00802FF
:1087EC009A619B69002203F008030393039B02F038
:1087FC0091F838460022802102F08CF84046002285
:10880C00302102F087F84FF400521B4B384604A974
:10881C00CDE90423069401F0A5FF2023484604A9C2
:10882C00CDE904360694079501F09CFF8023384669
:10883C0004A9CDE90436CDE9064501F093FF3023B8
:10884C00404604A9CDE90436CDE9064501F08AFF7E
:10885C0022462146282001F00BFD282001F038FD8E
:10886C0009B0BDE8F08300BF0010024000080140D1
:10887C0000100140000C0140000011102DE9F74FD1
:10888C000C4606460025504F00F11808C5F1500360
:10889C00502D4FEA430207EB450088BF0022002110
:1088AC00019396F801B096F800A096F8029002F0A9
:1088BC0084FE502D019B88BF00231D44072307EB2A
:1088CC0045024BFA03F111F0010F0CBF19212C21B9
:1088DC00013B22F8021BF4D2072105F100430733B8
:1088EC005A0007EB43034AFA01F010F0010F0CBFDA
:1088FC0019202C20013923F8020FF4D202F11003B5
:10890C0007223B4449FA02F111F0010F0CBF192167
:10891C002C21013A23F8021FF4D20336464505F107
:10892C001805B3D10025294E04F11807502DC5F1B7
:10893C00500B4FEA4B0206EB450088BF002200218A
:10894C0094F801A094F8009094F8028002F035FE9F
:10895C00502D88BF4FF0000B07235D4406EB4502FA
:10896C004AFA03F111F0010F0CBF19212C21013B24
:10897C0022F8021BF4D2072105F1004307335A00F9
:10898C0006EB430349FA01F010F0010F0CBF19205C
:10899C002C20013923F8020FF4D202F11003072224
:1089AC00334448FA02F111F0010F0CBF19212C21AC
:1089BC00013A23F8021FF4D20334A74205F118053B
:1089CC00B4D103B0BDE8F08FFA080020DA0600201D
:1089DC002DE9F84F05460024274E00F11807502CBE
:1089EC00C4F1500B4FEA4B0206EB440088BF002247
:1089FC00002195F801A095F8009095F8028002F0FE
:108A0C00DCFD502C88BF4FF0000B07235C4406EBB9
:108A1C0044024AFA03F111F0010F0CBF19212C2169
:108A2C00013B22F8021BF4D2072104F10043073367
:108A3C005A0006EB430349FA01F010F0010F0CBF8A
:108A4C0019202C20013923F8020FF4D202F1100363
:108A5C000722334448FA02F111F0010F0CBF19211F
:108A6C002C21013A23F8021FF4D20335BD4204F144
:108A7C001804B4D1BDE8F88FBA04002008B5002161
:108A8C004FF488730B4A0C4802F0D8FC4FF48873EF
:108A9C0004210A4A0A4802F0D1FC4FF488730421DD
:108AAC00084A094802F0CAFCBDE80840022001F05F
:108ABC00ADB800BFFA080020441E0020DA060020E2
:108ACC008C1E0020BA040020D41E0020002108B502
:108ADC000A4A0B4B013108299070507098705870ED
:108AEC0002F8030B03F8030BF4D105490348FFF715
:108AFC00C5FEBDE80840FFF7C1BF00BFA1040020C0
:108B0C0089040020002208B5074B0132082A98700E
:108B1C00587003F8030BF8D10348FFF759FFBDE871
:108B2C000840FFF7ABBF00BF7104002000222DE905
:108B3C00F843194E194F3046394613460132082A6C
:108B4C00837043708B704B7000F8033B01F8033B50
:108B5C00F4D10025FF24DFF84490DFF83C803A463E
:108B6C00334600200130A8429C705C7094705470A5
:108B7C0003F8034B02F8034BF4DD49464046FFF77C
:108B8C007DFE0135FFF77AFF642001F03FF8082DD8
:108B9C00E5D1BDE8F88300BFA104002089040020C2
:108BAC0008B5FFF7C3FFFF20FFF790FFFF20FFF78B
:108BBC00A9FF4FF4FA7001F029F87D20FFF786FF2A
:108BCC007D20FFF79FFF4FF4FA7001F01FF8002093
:108BDC00FFF77CFF0020FFF795FFBDE808404FF43E
:108BEC00FA7001F013B800002DE9F0411C4F1D4E36
:108BFC003B781D4D83421EBF002333702B700446FF
:108C0C003378A0B1012815D03378042B16D9DFF8AE
:108C1C005C8098F800308BB10020FFF757FF0023E1
:108C2C0088F8003033702B703C70BDE8F081013354
:108C3C003370E9E72B7801332B70E5E72B78042BA5
:108C4C00F2D9DFF8288098F80030012BECD0B22054
:108C5C00FFF73CFF012388F800300023E2E700BF58
:108C6C00090000206F0400206E0400200800002082
:108C7C002DE9F0411C4F1D4E3B781D4D83421EBF0C
:108C8C00002333702B7004463378A0B1012815D023
:108C9C003378042B16D9DFF85C8098F800308BB150
:108CAC00B220FFF713FF002388F8003033702B70CD
:108CBC003C70BDE8F08101333370E9E72B78013368
:108CCC002B70E5E72B78042BF2D9DFF8288098F885
:108CDC000030012BECD0FF20FFF7F8FE012388F8C1
:108CEC0000300023E2E700BF070000206D040020E5
:108CFC006C040020060000202DE9F0411C4F1D4E95
:108D0C003B781D4D83421EBF002333702B700446ED
:108D1C003378C0B1012801D1013333703378042B7F
:108D2C0015D9DFF8588098F80030012B0FD0FF20B0
:108D3C00FFF7E8FE012388F80030002333702B7016
:108D4C003C70BDE8F0812B7801332B70E6E72B7873
:108D5C00042BF5D9DFF8248098F80030002BEFD0E5
:108D6C000020FFF7CFFE002388F80030E6E700BFB5
:108D7C00050000206B0400206A0400200400002081
:108D8C002DE9F0411E4F1F4E3B781F4D83421EBFF5
:108D9C00002333702B7004463378B0B1012817D000
:108DAC003378042B18D9DFF8648098F800309BB125
:108DBC0000228021164801F0ADFD002388F8003018
:108DCC0033702B703C70BDE8F08101333370E7E7F2
:108DDC002B7801332B70E3E72B78042BF2D9DFF8D7
:108DEC002C8098F80030012BECD00122802108480F
:108DFC0001F090FD012388F800300023E0E700BF6C
:108E0C0003000020690400206804002002000020F8
:108E1C00001001402DE9F047DFF80C91804699F8DD
:108E2C000030424F8342424E424D434C04D000230B
:108E3C003B7033702B7023703B78B8F1030F05D85F
:108E4C00DFE808F0023A363201333B703B78042BF2
:108E5C0036D9DFF8E8A09AF800308BB30022102145
:108E6C00374801F057FD00222021354801F052FD12
:108E7C0000238AF800303B7033702B7023702378FA
:108E8C00042B38D9DFF8B4A09AF80030012B32D07B
:108E9C00012210212A4801F03DFD00222021284802
:108EAC0001F038FD01231FE0337801333370CDE737
:108EBC002B7801332B70C9E7237801332370C5E776
:108ECC003378042B1BD9DFF874A09AF80030032BED
:108EDC0015D0012210211A4801F01CFD012220217D
:108EEC00174801F017FD03238AF8003000233B706C
:108EFC0033702B70237089F80080BDE8F0872B78D5
:108F0C00042BBCD9DFF834A09AF80030022BB6D071
:108F1C00002210210A4801F0FDFC01222021084802
:108F2C0001F0F8FC0223DFE70100002067040020B9
:108F3C00660400206504002064040020000000206A
:108F4C00000C014010B504460078FFF74DFEA078E8
:108F5C00FFF78EFEE078FFF7CFFE2079FFF710FFCA
:108F6C006079BDE81040FFF755BF0000BFF34F8F8D
:108F7C000549064BCA6802F4E0621343CB60BFF3A9
:108F8C004F8F00BFFDE700BF00ED00E00400FA05C5
:108F9C00002208B51420114601F06AF9BDE808401A
:108FAC00142001F095B9000007B572B601222021FA
:108FBC000C4801F0AFFC0C4A012140F2CC5000F0FF
:108FCC0045F801F0B9FC094BDA6942F00062DA614C
:108FDC000122DB6903F000630193019B044B5A608F
:108FEC00FFF7C4FF000801403C0B002000100240BA
:108FFC00006C004010B590B02022002107A802F0B0
:10900C00DCFA1422002101A802F0D7FA1023012265
:10901C000224CDE90A234FF4601306A806940D949C
:10902C000F9301F08FFC08B1FFF7BEFF0F23CDE9C2
:10903C0001344FF480630390CDE90430214601A83C
:10904C0001F042FE0028EFD110B010BD38B500235E
:10905C000C460A49C1E902330860094B09480C6106
:10906C0000F0FCFE40B9064D064C2046296800F085
:10907C003EFF0028F9D138BDFFF796FF500B0020BA
:10908C004C0B00203C00002010B586B001F06CFAAF
:10909C0000242F230C4A01A902A8CDE90144CDE9F3
:1090AC00042301F00BFB58B101F070FA074B0121BE
:1090BC00074A40F2CC501C70FFF7C8FFFFF756FF71
:1090CC0001F064FA06B010BD00440108490B002001
:1090DC003C0B002013B50C4C237893B90B4A13604E
:1090EC000B4A1360FFF7D0FF5223012140F2CB5003
:1090FC000DF107028DF80730FFF7A8FF2378013335
:10910C00237002B010BD00BF2C0B0020440B0020BC
:10911C00380B002037B502224B78144C144D2370B9
:10912C008B7814486370B1F8033029466380124B76
:10913C001A700822FFF71AFB22782B789A4201D07A
:10914C00FFF732FF62786B789A42F9D96388B3F5EE
:10915C003C4FF5D85323012140F2CB500DF10702BF
:10916C008DF80730FFF772FF03B030BD1C0B0020E9
:10917C00240B002000800008490B002000B58BB0A8
:10918C00002101AB03AA00F0C3FE08B1FFF70CFFEE
:10919C0040F2C953039A9A42174B0CD1197891B9E2
:1091AC000122164B1A70164A01AB03CB10605160AA
:1091BC000BB05DF804FBB2F5D06F04D1197811B97E
:1091CC0001221A70F4E71978012908D140F2816163
:1091DC008A4204D101A903A8FFF79CFFE8E71B789A
:1091EC00012BE5D140F28C639A42E1D101A903A88D
:1091FC0000F0D8F9DCE700BF480B00207004002019
:10920C002D0B00202DE9F0434FF0FF34DFF85C808C
:10921C00174FB8F80250DFF85C90A1B0043D45B987
:10922C00E443D8F80400001B18BF012021B0BDE8AE
:10923C00F083802D2E4628BF80266946324638465C
:10924C00FFF794FA78B16946002211F8013B01321C
:10925C006340DBB259F82330964283EA1424F4D1EC
:10926C003744AD1BDBE7FFF79FFE00BF1C0B002054
:10927C000044010854B600082DE9F04FDFF8A08136
:10928C008DB098F80030022B0ED0032B00F0948098
:10929C00002B40F0C180634B1B78002B75D00DB0B8
:1092AC00BDE8F04FFFF716BF5F4B604F5B883E6821
:1092BC0001939E1BB6F5805F28BF4FF4805600F0DB
:1092CC0043F920B93B68019A33449A425DD1DFF8E7
:1092DC00609111E000F058F9044668B903A905A89B
:1092EC0000F088F99DF824A001F03EF9DFF844B1B4
:1092FC00544524D301F04AF9D9F80030B342E9D3EC
:10930C003B68019A9A420DD14A4B0422186802A973
:10931C000438FFF72BFA029B434A1BBA5360032312
:10932C0088F800300023C9F8003000F023F95423EA
:10933C00082140F2CB508DF8083002AA23E0651CBE
:10934C0004F130036B44554513F8242CBEBF05F1D2
:10935C0030036B4413F8243C4FF00100B8BF42EAD1
:10936C000322DBF80010002301F044F980B101F076
:10937C000DF94FF00002012140F2CC50294B88F836
:10938C0000201A702C4AFFF761FE0DB0BDE8F08F7B
:10939C005545ACBF01250225DBF8003002342B44C7
:1093AC00CBF800303B68E4B22B443B60D9F800307A
:1093BC002B44C9F800309BE7FFF724FF08B1FFF7F7
:1093CC00F3FD08211D48FFF75FF90028F7D00822AC
:1093DC0015491A48FFF7A6F90028F0D055230821A3
:1093EC0040F2CB5003AA8DF80C30FFF72FFE01F0A2
:1093FC00A3FA134B4FF47A70DA6942F00062DA6127
:10940C000222DB6903F000630593059B0D4B5A6048
:10941C0000F0FCFBFFF7AAFD002388F80030B4E74E
:10942C00490B0020480B00201C0B0020440B002093
:10943C00380B00200C0000203C0B002000400108E1
:10944C0000100240006C004080B58CB000F0BAFBFC
:10945C00FFF7D0FDFFF79CFD01F06EFA334B344C57
:10946C00DA6942F00062DA61DB6903F000630193B0
:10947C00019BFFF783F9FFF7CBF8FFF761F800F0DA
:10948C000BFB00F035FA00F085FA00F0BBFA204631
:10949C0000F0B9FC08B1FFF787FD01251026236801
:1094AC00CDE90600CDE90805CDE90200CDE90400BF
:1094BC000A9520461E6102A900F035FC0028EAD16D
:1094CC000221204600F0A0FD01460028E3D11948F6
:1094DC0001F0F6FE0821174801F0F2FE0C211548A8
:1094EC0001F0EEFEFFF7BCF8FFF75AFB2A463146B7
:1094FC00114801F00FFA7820FFF7E8FA0F4C104DE5
:10950C00104E2378012B0BD12B7803F0FF073BB9BE
:10951C003046FFF717FD642000F078FB2770F0E76A
:10952C002B78002BEDD0FFF7A7FEEAE700100240E6
:10953C003C000020441E0020000C01407004002060
:10954C00480B00202D0B0020084A094B1B88108863
:10955C0040F201229BB20133B3FBF2F202EB422246
:10956C0080B29B1A1B1A584258417047680B002056
:10957C006A0B00200023024A1380024A13807047B2
:10958C00680B00206A0B0020044B1888044B80B237
:10959C001B889BB2C31A5842584170476A0B002073
:1095AC00680B002070B50646FFF7CEFFE8B90F4CEC
:1095BC00326923880E4D9BB203EBC303EA54238814
:1095CC000A689BB203EBC3030133EA504A6858198B
:1095DC00426040F2012223889BB20133B3FBF2F2CA
:1095EC0002EB42229B1A9BB2238070BD6A0B0020B7
:1095FC006C0B002038B50546FFF7C6FFE8B90F4CD9
:10960C000F4A23889BB203EBC303D35C2B612388E3
:10961C009BB203EBC30301339818D35840F20122D9
:10962C000B6043684B6023889BB20133B3FBF2F2AF
:10963C0002EB42229B1A9BB2238038BD680B0020A0
:10964C006C0B00200E4B82B09A6942F001029A61B9
:10965C009A6902F001020092009ADA6942F0805293
:10966C00DA61DB69074A03F080530193019B53686D
:10967C0023F0E06343F00073536002B0704700BF07
:10968C000010024000000140FEE7FEE7FEE7FEE7A7
:10969C00FEE770477047704700F0A6BA014800F02B
:1096AC00A7BE00BF001E0020014800F0A1BE00BFF5
:1096BC00781D0020014800F09BBE00BFBC1D00209F
:1096CC00014800F0BEBC00BF3C0000204FF400502D
:1096DC0001F026B9014B024A9A60704700ED00E098
:1096EC000084000830B50368404A0546934285B0B3
:1096FC0027D13F4B3F4C9A69DFF8FCE042F4006203
:10970C009A619B69802203F400630193019B1023EF
:10971C00C4E900E300234FF48071C4E90232A36171
:10972C004FF480624FF400532046C4E90412E36105
:10973C0000F0F0FD08B1FFF737FCAC62656205B0D4
:10974C0030BDB3F1804F27D103F50433DA692B4CCC
:10975C0042F00102DA61DB69294803F0010302934C
:10976C00029B10238022C4E9000300234FF4807C69
:10977C00C4E90232A3614FF480624FF400532046D7
:10978C00C4E904C2E36100F0C5FD08B1FFF70CFCAD
:10979C00AC6265622C63D2E71A4A9342CFD1144B68
:1097AC00194CDA694FF4807142F00202DA61DB691C
:1097BC00164A03F002030393039B1023C4E900230E
:1097CC0000238022A361C4E902324FF480624FF47B
:1097DC0000532046C4E90412E36100F09BFD08B17C
:1097EC00FFF7E2FB6C62AC636562A8E7002C0140FA
:1097FC0000100240001E002030000240BC1D002062
:10980C008000024000040040781D00206C000240E3
:10981C00102210B5044688B00DEB0200002101F0B7
:10982C00CCFE23682B4A934215D12B4B4FF400707E
:10983C009A6904A942F004029A619B6903F004033B
:10984C000193019B0223CDE904032448079300F004
:10985C0089FF08B010BDB3F1804F1DD103F504335F
:10986C009A69082142F008029A619B691C4803F02E
:10987C0008030293029B0223CDE9041304A9079366
:10988C0000F070FF174A536823F4407343F0E06311
:10989C0043F480735360DCE7134A9342D9D10E4BE7
:1098AC0012489A6904A942F010029A619B694FF41C
:1098BC00507203F010030393039B0223CDE904239E
:1098CC00079300F04FFF074A536843F0E06343F4FB
:1098DC004063DFE7002C014000100240000801400B
:1098EC00000C014000000140000400400010014049
:1098FC0010B5002492B01C22214603A8CDE90144E6
:10990C0001F05BFE202221460AA801F056FE1F48FA
:10991C001F4BC0E90544C0E900344F238460C0E903
:10992C00033401F0C1FB08B1FFF73EFB174801A956
:10993C00CDE9014401F084FD08B1FFF735FB0024AB
:10994C0060230422114803A9CDE90334CDE9054471
:10995C00CDE90744099401F0FFFB08B1FFF724FBA4
:10996C004FF4005309480AA9CDE90A44CDE90C4447
:10997C000E940F93119401F091FD08B1FFF714FBB5
:10998C000248FFF745FF12B010BD00BFD41E0020E7
:10999C00002C014010B500248AB01C22214603A8DB
:1099AC00CDE9014401F009FE4FF080431448C0E9B1
:1099BC0000344F238460C0E90334846101F074FBEC
:1099CC0008B1FFF7F1FA0E4801A9CDE9014401F005
:1099DC0037FD08B1FFF7E8FA002360220848CDE90B
:1099EC00032303A904220593079301F0B5FB08B1E7
:1099FC00FFF7DAFA0248FFF70BFF0AB010BD00BF01
:109A0C008C1E002010B500248AB01C22214603A80D
:109A1C00CDE9014401F0D1FD7F231D481D4A84602E
:109A2C00C0E9002342F20F738461C0E9033401F0F2
:109A3C003BFB08B1FFF7B8FA154801A9CDE9014481
:109A4C0001F0FEFC08B1FFF7AFFA002260231048CA
:109A5C0003A9CDE903320592079201F07DFB08B111
:109A6C00FFF7A2FA08220A4803A901F075FB08B116
:109A7C00FFF79AFA0C2206480DEB020101F06CFB81
:109A8C0008B1FFF791FA0248FFF7C2FE0AB010BD09
:109A9C00441E00200004004008B54FF4E1330A488E
:109AAC000A4AC0E9002300230C22C0E90233C0E9B2
:109ABC0005230361C36101F051FD18B1BDE80840F5
:109ACC00FFF772BA08BD00BF1C1F00200044004005
:109ADC0010B5044686B01022002102A801F06DFDDD
:109AEC002268114B9A421CD103F5E633DA690F4810
:109AFC0042F40032DA61DA6902A902F4003200920F
:109B0C00009A9A6942F004029A619B690C2203F054
:109B1C0004030193019B0223CDE90223059300F07A
:109B2C0021FE06B010BD00BF0044004000080140FB
:109B3C00FFF7D0FD0B480C490C4A002302E0D45827
:109B4C00C4500433C4188C42F9D3094A094C00237D
:109B5C0001E013600432A242FBD301F037FDFFF7A2
:109B6C0073FC7047000000201C00002088BA00081D
:109B7C0020000020881F0020FEE7000038B50E4BA7
:109B8C0005461A784FF47A73B3FBF2F30B4A10685C
:109B9C00B0FBF3F000F0AAFB044658B90F2D09D81E
:109BAC00024629464FF0FF3000F062FB2046044B82
:109BBC001D6038BD0120FCE71400002010000020BF
:109BCC0018000020074A08B51368032043F010035F
:109BDC00136000F03BFB0020FFF7D0FFFFF732FDD6
:109BEC00002008BD00200240034A044B11681B787A
:109BFC000B441360704700BF641F0020140000204A
:109C0C00014B1868704700BF641F002038B504462C
:109C1C00FFF7F6FF0546631C1EBF044B1B78E418C8
:109C2C00FFF7EEFF431BA342FAD338BD140000200C
:109C3C0038B5044600286ED090F820300BB9FEF7EA
:109C4C00A7FC2268136843F001031360FFF7D8FFE9
:109C5C00054623685A68D10751D51A6822F00202CA
:109C6C001A60FFF7CDFF054623685A68920754D453
:109C7C00227E0020012A1A680CBF42F0800222F0DA
:109C8C0080021A60627E012A1A680CBF42F0400200
:109C9C0022F040021A60A27E012A1A680CBF42F020
:109CAC00200222F020021A60E27E012A1A680CBF00
:109CBC0022F0100242F010021A60227F012A1A6868
:109CCC000CBF42F0080222F008021A60627F012ADF
:109CDC001A680CBF42F0040222F004021A60D4E9A4
:109CEC0002210A4321690A4361690A436168013907
:109CFC000A43DA610123606284F820300CE0FFF73C
:109D0C007FFF401B0A28A4D9636A43F400336362C3
:109D1C00052384F82030012038BDFFF771FF401B6C
:109D2C000A28A1D9F0E770B590F820200368013A11
:109D3C00012A62D80120D3F8002242F00102C3F8B4
:109D4C0000224A69D3F81C5202F01F04A04025EAF5
:109D5C000005C3F81C52CD69C44395BBD3F80C5213
:109D6C00CE682540C3F80C528D8803EBC20245EA3D
:109D7C000645C2F840528E680D8845EA0645C2F881
:109D8C0044528A697ABBD3F804222240C3F80422D5
:109D9C000A6962BBD3F814221440C3F814420A6A4D
:109DAC00012A04BFD3F81C2202434FF0000008BF65
:109DBC00C3F81C22D3F8002222F00102C3F80022BF
:109DCC0070BD012DDDD1D3F80C520E680543C3F8DC
:109DDC000C528D8803EBC20245EA0645C2F840528C
:109DEC008E688D89C9E7D3F804220243CEE7D3F8F5
:109DFC0014220243C3F81422D1E7436A43F48023AC
:109E0C0043620120DCE738B590F820300446012B82
:109E1C001FD10223026880F82030136823F001035D
:109E2C001360FFF7EDFE05462368586810F001003B
:109E3C0001D1606238BDFFF7E3FE401B0A28F3D95D
:109E4C00636A43F400336362052384F820300120F5
:109E5C00F0E7436A43F400234362F8E7F0B590F867
:109E6C0020500468013D012DA6683CD816F0E05F37
:109E7C0033D00125C6F3016085401D60D1E902573E
:109E8C0000F1180315BB0D681B0147EA4557E75055
:109E9C0004EB0013050100200E692C44C3F8846107
:109EAC00097D012902BFD3F8841141F48071C3F8F4
:109EBC0084115168C4F88C111268C4F88821D3F845
:109ECC00802142F00102C3F88021F0BD4E683D4371
:109EDC0045EAC6051B01E550DAE7436A43F4001373
:109EEC0043620120F1E7436A43F48023F8E790F8DA
:109EFC002030013B012B09D803689B6803EA81637E
:109F0C00B3EB816F14BF0120002070470020704715
:109F1C00F0B590F82040013C012C71D8066841B98D
:109F2C00F468A40707D1436A43F400134362012089
:109F3C00F0BD3469F5E706EB0115D5F8B0710C01ED
:109F4C0007F004079760002F50D1D5F8B0717F0D42
:109F5C001760D5F8B071264407F00207D760D5F822
:109F6C00B4713F074EBF0827D5F8B47107F00F073F
:109F7C001761D5F8B471D5F8B451C7F307272D0C78
:109F8C0097615561D6F8B8211A7002682244D2F84C
:109F9C00B821120A5A7002682244D2F8B821120C65
:109FAC009A7002682244D2F8B821120EDA70026854
:109FBC002244D2F8BC211A7102682244D2F8BC2186
:109FCC00120A5A7102682244D2F8BC21120C9A71FE
:109FDC0002682244D2F8BC21120EDA71036851B91E
:109FEC00DA6842F02002DA600020A1E7D5F8B071FF
:109FFC00FF085760ADE71A6942F020021A61F3E7D7
:10A00C00436A43F4802391E790F82030013B012B05
:10A01C0005D8026800205369194351617047436A9F
:10A02C0043F48023436201207047704770477047A8
:10A03C00704770477047704770477047704770475C
:10A04C0070472DE9F84F036805465E69D3F8049014
:10A05C0016F00104D3F80880D3F80CB0D3F810A094
:10A06C009F6927D018F0010F07D0012218F0020FBA
:10A07C009A6000F0A680FFF7D8FF002418F4807FC8
:10A08C000AD04FF480722B6818F4007F9A6000F0AD
:10A09C00A7802846FFF7CAFF18F4803F0AD04FF478
:10A0AC0080322B6818F4003F9A6000F0A980284693
:10A0BC00FFF7BDFF300707D51BF0100F1FBF102295
:10A0CC002B6844F40074DA60710708D51BF0080F94
:10A0DC0005D008222B682846DA60FFF7ACFFB207E0
:10A0EC0006D52B68DB689B0702D02846FFF746F89D
:10A0FC00700607D51AF0100F1FBF10222B6844F4FE
:10A10C0080641A61B10608D51AF0080F05D0082230
:10A11C002B6828461A61FFF790FFF20606D52B68CC
:10A12C001B699B0702D02846FFF786FFB00308D5B2
:10A13C0019F0100F05D010222B6828465A60FFF733
:10A14C007DFFF10308D519F0080F05D008222B6804
:10A15C0028465A60FFF773FF320429D519F0040F13
:10A16C002A6823D0F30503D5F80748BF44F001044F
:10A17C00B10503D5BB0748BF44F00204700503D5F5
:10A18C00790748BF44F0040433050FD517F070036A
:10A19C000CD0402B54D043D8202B4BD0302B4CD050
:10A1AC00102B44D0936923F0700393610423536004
:10A1BC002CB16B6A284623436B62FFF741FFBDE865
:10A1CC00F88F18F0040F05D118F0080F05D1FFF720
:10A1DC002FFF52E74FF4006450E74FF480544DE7E3
:10A1EC0018F4806F02D044F4005455E718F4006F53
:10A1FC0002D044F480444FE72846FFF71AFF4BE7A0
:10A20C0018F4802F02D044F4004453E718F4002FC4
:10A21C0002D044F480344DE72846FFF70BFF49E7A2
:10A22C00502B10D0602BBDD144F48074BAE744F0AD
:10A23C000804B7E744F01004B4E744F02004B1E795
:10A24C0044F04004AEE744F08004ABE70749030256
:10A25C00CA6803F4E06322F4E0621204120C1343A4
:10A26C0043F0BF6343F40033CB60704700ED00E074
:10A27C00154B30B5DC68C4F30224C4F10703251D6B
:10A28C00042B28BF0423062D4FF0FF3594BF002468
:10A29C00033C05FA03F321EA0303A54022EA050275
:10A2AC00A340002843EA0203ACBF00F16040074A18
:10A2BC004FEA0313DBB2ABBF00F5614000F00F00B7
:10A2CC0080F80033135430BD00ED00E014ED00E0D5
:10A2DC00002807DB01234109034A00F01F008340DB
:10A2EC0042F82130704700BF00E100E00138B0F1C6
:10A2FC00807F0BD24FF0E023F021054A586182F8A1
:10A30C0023100020072298611A61704701207047C2
:10A31C0000ED00E0034610B540B314210068144A68
:10A32C000244B2FBF1F292001A64124ADA6302227E
:10A33C0083F82120D3E901242243DC6801682243FD
:10A34C001C6921F47F5122435C6921F030012243C6
:10A35C009C692243DC6922430A43026000200122EB
:10A36C00986383F8200083F8212010BD0120FCE7BE
:10A37C00F8FFFDBF00000240F0B590F82040012C22
:10A38C0034D0012480F8204090F82140012CE5B213
:10A39C004FF0000428D1022680F821608463046801
:10A3AC00266826F001062660D0E90F67BD4075606F
:10A3BC0063604368102BC36A0BBFA260A160E160AD
:10A3CC00E2604BB1236843F00E0300202360236846
:10A3DC0043F001032360F0BD236823F004032360E2
:10A3EC00236843F00A03F0E780F820400220F2E7EC
:10A3FC0070B40425C66B026C346803689540254222
:10A40C00196832D04D0730D51A6896065EBF1A68A7
:10A41C0022F004021A603E4A934219D0143293423D
:10A42C0018D01432934217D01432934217D01432EE
:10A43C00934217D01432934214BF4FF080634FF401
:10A44C008003344A5360C36A002B5ED070BC18473B
:10A45C000423F6E74023F4E74FF48063F1E74FF46D
:10A46C008043EEE74FF48023EBE70225954025422D
:10A47C0035D08D0733D51A68940606D41A6822F0A5
:10A48C000A021A60012280F82120214A934219D035
:10A49C001432934218D01432934217D01432934290
:10A4AC0017D01432934217D01432934214BF4FF08A
:10A4BC0000734FF40013174A5360002380F82030C8
:10A4CC00836AC1E70223F6E72023F4E74FF4007315
:10A4DC00F1E74FF40053EEE74FF40033EBE70825B8
:10A4EC009540254211D009070FD5196821F00E01AE
:10A4FC001960012303FA02F27260836380F8213041
:10A50C00002380F82030036B9EE770BC704700BFBF
:10A51C000800024000000240114AD36813F01003F7
:10A52C0005D01049CB6943F00203CB611023D268EC
:10A53C00500706D50B4943F00403CA6942F00102E7
:10A54C00CA61074AD169C90708D50648C16941F0F3
:10A55C000401C161D16921F00101D161D36070475F
:10A56C0000200240681F0020064B186910F0800084
:10A57C0007D0054A5A6002F188325A601869C0F354
:10A58C00C01070470020024023016745034A002099
:10A59C00136943F080031361704700BF0020024031
:10A5AC0070B50546FFF72CFB0646114CE368D8073F
:10A5BC0012D4E368990644BF2023E360E368DA060B
:10A5CC0006D4E369DB0703D4E06810F0040007D07D
:10A5DC00FFF7A2FF012003E06B1CE7D00DB90320AD
:10A5EC0070BDFFF70DFB801BA842DFD9F7E700BF5A
:10A5FC00002002402DE9F84FDFF894A01F469AF88E
:10A60C0018300546012B884691463FD001234CF269
:10A61C0050308AF81830FFF7C3FF90BB012D03D0E0
:10A62C00022D14BF0425022500263346DFF864B042
:10A63C003401C4F12001A4F1200207FA01F129FA36
:10A64C0004F4CAF81C300C4327FA02F21443DBF86A
:10A65C001020A4B242F00102CBF810204CF2503082
:10A66C0028F81640FFF79CFFDBF8102022F00102BF
:10A67C00CBF8102028B90136F2B295424FF0000306
:10A68C00D6D800238AF81830BDE8F88F0220FBE7F3
:10A69C00681F0020002002400022064BDA61064BA6
:10A6AC001A6942F002021A6158611A6942F04002BA
:10A6BC001A617047681F0020002002402DE9F0410C
:10A6CC00264F05463B7E8846012B44D001243C7620
:10A6DC0003684CF25030022B1AD1FFF761FF20B106
:10A6EC00012000233B76BDE8F0811D4CF861236905
:10A6FC004CF2503043F004032361236943F04003D0
:10A70C002361FFF74DFF236923F004032361E8E77E
:10A71C00FFF746FF0028E3D14FF0FF33C8F80030B5
:10A72C002046AE680E4CD5E9023203EB8223B342CD
:10A73C00D7D93046FFF7B0FF4CF25030FFF730FF5F
:10A74C00236923F00203236110B1C8F80060C8E745
:10A75C0006F58066E7E70220C5E700BF681F00200A
:10A76C00002002402DE9F74F00242646DFF888C16F
:10A77C00624BDFF88CE1DFF88C810A6832FA06F55F
:10A78C0002D103B0BDE8F08F0127B74002EA0705FC
:10A79C0037EA02027AD14A68032A07D8013A022A18
:10A7AC0000F28380DFE802F092979D00122A00F0FD
:10A7BC0095806DD8112A00F08B80FF2D98BF8146B3
:10A7CC004FF00F0B88BF00F104094FEA8602D9F84D
:10A7DC00007088BF203A0BFA02FA27EA0A0704FA3B
:10A7EC0002F21743C9F80070D1F8049019F0805F99
:10A7FC004CD0DCF8182026F0030742F00102CCF80C
:10A80C001820DCF8182007F1804702F001020192B1
:10A81C0007F5803706F0030A019A4FEA8A0ABA68EC
:10A82C000BFA0AFB22EA0B0B374A90425DD002F579
:10A83C00806290425BD002F58062904259D002F562
:10A84C008062904214BF0422032202FA0AF242EA06
:10A85C000B02BA609A6819F4801F14BF2A43AA43EA
:10A86C009A60DA6819F4001F14BF2A43AA43DA600D
:10A87C005A6819F4003F14BF2A43AA435A601A6855
:10A88C0019F4803F14BF2A43AA431A60013674E7B7
:10A89C00DFF878904A4508D010D8A9F580194A45B8
:10A8AC0003D0724501D0424587D18A68DAB1012ABA
:10A8BC004FF008040CBF076147617EE7DFF850904A
:10A8CC004A45F2D009F580394A45EDE7CC6874E782
:10A8DC00CC68043471E7CC6808346EE7CC680C346F
:10A8EC006BE7002469E7042467E70022ADE7012247
:10A8FC00ABE70222A9E700BF0010024000040140B0
:10A90C00000021100000111000080140000022106E
:10A91C00000031100AB1016170470904FBE7704770
:10A92C00044A08B55169014202D05061FFF7F7FFA4
:10A93C0008BD00BF000401400122014B1A627047A0
:10A94C0000000E422DE9F341054638B30368DB07DE
:10A95C0010D42B689F075ED42B68190700F19580E3
:10A96C002B685A0700F1C180EB69002B40F02C8159
:10A97C00002029E0904C636803F00C03042B07D0F3
:10A98C00636803F00C03082B0AD16368DE0307D558
:10A99C0023689C03DDD56B68002BDAD1012013E012
:10A9AC006B68B3F5803F12D1236843F48033236086
:10A9BC00FFF726F9064623689803CAD4FFF720F957
:10A9CC00801B6428F7D9032002B0BDE8F0819BB945
:10A9DC00236823F480332360236823F480232360CB
:10A9EC00FFF70EF9064623689903B2D5FFF708F96D
:10A9FC00801B6428F7D9E6E7B3F5A02F236803D1B1
:10AA0C0043F480232360CFE723F48033236023684F
:10AA1C0023F48023CBE7684C636813F00C0F07D04A
:10AA2C00636803F00C03082B10D16368DA030DD4B0
:10AA3C0023689B0702D52B69012BAFD123686A6968
:10AA4C0023F0F80343EAC203236085E72A695B4BD2
:10AA5C006AB101221A60FFF7D3F8064623689F07F4
:10AA6C00ECD4FFF7CDF8801B0228F7D9ABE71A60BE
:10AA7C00FFF7C6F80646236898077FF56DAFFFF71A
:10AA8C00BFF8801B0228F6D99DE7AA694A4E4B4BAA
:10AA9C00E2B10122C3F88024FFF7B2F80446736ACE
:10AAAC009B070DD54FF4FA52454B1B68B3FBF2F3E1
:10AABC00019300BF019B5A1E0192002BF9D14FE765
:10AACC00FFF79EF8001B0228E9D97CE7C3F8802425
:10AADC00FFF796F80446736A9F077FF541AFFFF7BF
:10AAEC008FF8001B0228F6D96DE7334CE369D800C8
:10AAFC0024D40127E36943F08053E361E36903F055
:10AB0C0080530093009B2F4E3368D90518D5EB6802
:10AB1C00012B26D1236A43F001032362FFF770F85F
:10AB2C0041F288380646236A9B073FD5002F3FF435
:10AB3C001BAFE36923F08053E36115E70027E2E7DD
:10AB4C00336843F480733360FFF75AF880463368F8
:10AB5C00DA05DCD4FFF754F8A0EB08006428F6D92A
:10AB6C0031E7ABB9236A41F2883823F00103236241
:10AB7C00236A23F004032362FFF742F80646236A94
:10AB8C009807D3D5FFF73CF8801B4045F7D91AE757
:10AB9C00052B236A03D143F004032362BAE723F0A5
:10ABAC0001032362236A23F00403B6E7FFF728F8B6
:10ABBC00801B4045B7D906E7001002400000424216
:10ABCC0010000020007000402A4C626802F00C0259
:10ABDC00082A3ED00022022B274B1A662CD1FFF7F5
:10ABEC000FF806462368990120D42B6AB3F5803FF1
:10ABFC0005D16268A96822F400320A436260696A6E
:10AC0C0062680B4322F474121343012263601A4BE3
:10AC1C001A66FEF7F5FF054623689A013FF5A8AEC4
:10AC2C00FEF7EEFF401B0228F6D9CCE6FEF7E8FF54
:10AC3C00801B0228D6D9C6E6FEF7E2FF054623683C
:10AC4C009B017FF595AEFEF7DBFF401B0228F6D982
:10AC5C00B9E6012B3FF4A2AE60682B6A00F4803297
:10AC6C009A427FF49BAE6B6A00F47010C01A18BF46
:10AC7C000120A9E600100240000042420D4A536830
:10AC8C0003F00C01082912D10B48C3F38341DB03F9
:10AC9C00405C09D55368094AC3F340435043084A02
:10ACAC00D35CB0FBF3F07047064B58437047034836
:10ACBC00704700BF001002406EBA000800127A0004
:10ACCC006CBA000800093D002DE9F0410D46044620
:10ACDC0010B90120BDE8F081444A136803F0070362
:10ACEC008B4228D321688E0730D4CA0743D43F4AFD
:10ACFC00136803F00703AB4265D822683C4D12F091
:10AD0C00040F6CD1130706D56B68226923F46053CA
:10AD1C0043EAC2036B60FFF7B1FF6B68354AC3F3BC
:10AD2C000313D35CD840344B1860344B1868FEF7CF
:10AD3C0025FF0020CEE7136823F007030B431360B5
:10AD4C00136803F007038B42C3D1CBE7284B11F0F8
:10AD5C00040F1EBF5A6842F4E0625A60080742BFF3
:10AD6C005A6842F460525A605A68A06822F0F002A5
:10AD7C0002435A60B9E762681D4E012A33681AD142
:10AD8C0013F4003FA5D0736841F2883823F0030315
:10AD9C0013437360FEF734FF07467368626803F071
:10ADAC000C03B3EB820FA2D0FEF72AFFC01B404569
:10ADBC00F3D903208EE7022A02D113F0007FE1E7DA
:10ADCC0013F0020FDEE7136823F007032B43136025
:10ADDC00136803F00703AB427FF47BAF8DE76B681E
:10ADEC00E16823F4E0630B436B608BE700200240C7
:10ADFC00001002405CBA000810000020180000206F
:10AE0C00044B054A5B68C3F30223D35C034A106806
:10AE1C00D84070470010024054BA000810000020BF
:10AE2C00044B054A5B68C3F3C223D35C034A106826
:10AE3C00D84070470010024054BA0008100000209F
:10AE4C00036A026A70B522F00102026244688269E8
:10AE5C000D6822F073022A438D6823F002032B4302
:10AE6C000A4DA8420BD1CD6823F008032B4324F4E0
:10AE7C004074D1E90556354323F004032C43446058
:10AE8C0082614A684263036270BD00BF002C0140BE
:10AE9C00036A026A70B522F4807202624468C26965
:10AEAC000D6822F073022A438D6823F4007343EA81
:10AEBC0005230B4DA8420DD1CD6823F4006343EA62
:10AECC00052324F44054D1E90556354323F480631B
:10AEDC0044EA05144460C2614A68C263036270BDEF
:10AEEC00002C0140036A026A30B522F480520262DF
:10AEFC004468C2690D6822F4E64242EA05228D6874
:10AF0C0023F4005343EA0533064DA84202BF4D69B2
:10AF1C0024F4804444EA85144460C2614A680264A3
:10AF2C00036230BD002C0140704710B5446A626A60
:10AF3C0082420BD10123237792690AB984F83E30FF
:10AF4C002046FFF7F1FF0023237710BDA36A83424D
:10AF5C0008D1022222779B69002BF1D1012384F8BE
:10AF6C003F30EDE7E36A834208D1042222779B69E4
:10AF7C00002BE5D1012384F84030E1E7236B8342B9
:10AF8C00DED1082222779B69002BD9D1012384F8CA
:10AF9C004130D5E7704710B5446A636A834207D1E4
:10AFAC00012323772046FFF7F5FF0023237710BDFD
:10AFBC00A36A834201D10223F3E7E36A834201D1FE
:10AFCC000423EEE7236B8342ECD10823E9E77047B7
:10AFDC0010B5446A636A834209D10123237784F84C
:10AFEC003E302046FFF7F3FF0023237710BDA36A02
:10AFFC00834205D102232377012384F83F30F0E705
:10B00C00E36A83424FF0010304D1042284F84030F8
:10B01C002277E6E7226B824203BF082284F8413094
:10B02C00227784F83D30DCE71E4A036890420AD050
:10B03C00B0F1804F07D0A2F59432904203D002F5C4
:10B04C008062904215D14A6823F070031343154A6D
:10B05C0090420AD0B0F1804F07D0A2F594329042C2
:10B06C0003D002F58062904203D1CA6823F4407386
:10B07C0013434A6923F08003134303608B68C36254
:10B08C000B688362074B984204BF0B69036301236F
:10B09C0043610369DB0742BF036923F001030361CA
:10B0AC00704700BF002C014010B5044630B390F837
:10B0BC003D3003F0FF021BB980F83C20FEF712FB79
:10B0CC000223206884F83D30211DFFF7ADFF0123DA
:10B0DC00002084F8463084F83E3084F83F3084F801
:10B0EC00403084F8413084F8423084F8433084F89E
:10B0FC00443084F8453084F83D3010BD0120FCE725
:10B10C00036A026A70B522F0100202624468826916
:10B11C000D6822F4E64242EA05228D6823F02003F2
:10B12C0043EA05130B4DA8420DD1CD6823F08003E3
:10B13C0043EA051324F44064D1E90556354323F062
:10B14C00400344EA8504446082614A688263036276
:10B15C0070BD00BF002C014038B590F83C3004465F
:10B16C00012B4FD00120082A84F83C003AD006D895
:10B17C00BAB1042A26D0002384F83C3038BD0C2AFE
:10B18C00F9D12068FFF7AEFEC3690A6943F4006386
:10B19C00C361C36923F48063C361C36943EA0223B7
:10B1AC002EE02068FFF74CFE83690A6943F0080320
:10B1BC008361836923F0040383618369134383618F
:10B1CC000020D8E72068FFF79BFF83690A6943F4E6
:10B1DC0000638361836923F480638361836943EA39
:10B1EC000223ECE72068FFF753FEC3690A6943F0BA
:10B1FC000803C361C36923F00403C361C369134328
:10B20C00C361DDE70220B9E710B50124036A01F040
:10B21C001F018C4023EA04030362036A8A401A4329
:10B22C00026210BD08B529B990F83E30012B1DD033
:10B23C0001202EE0042907D190F83F30012BF7D1E3
:10B24C00022380F83F3014E0082907D190F84030F1
:10B25C00012BEDD1022380F840300AE090F8413008
:10B26C00012BE5D1022380F8413002E0022380F863
:10B27C003E3000680122FFF7C7FF0F4B984209D000
:10B28C00B0F1804F0BD1836803F00703062B0DD16F
:10B29C00002008BD436C43F400434364F3E7074BC1
:10B2AC009842F0D003F580639842ECD0036843F0E9
:10B2BC0001030360ECE700BF002C014000040040D8
:10B2CC00FFF7B0BF38B50D460446114655B990F896
:10B2DC003E00A0F1020CDCF1000040EB0C0070B160
:10B2EC0002204DE0042D02D190F83F00F1E7082D2B
:10B2FC0002D190F84000ECE790F84100E9E73DB945
:10B30C0094F83E00421E5042504170B9012037E083
:10B31C00042D02D194F83F00F4E7082D02D194F8E3
:10B32C004000EFE794F84100ECE70029EED0002B49
:10B33C00ECD002222DBB84F83E20606A3A4A82622D
:10B34C003A4AC2623A4A026322683432FFF714F86E
:10B35C000028DBD12268D36843F40073D3602068E3
:10B36C0001222946FFF750FF324B98424BD0B0F1E7
:10B37C00804F4DD1836803F00703062B4FD100207B
:10B38C0038BD042D13D184F83F20A06A264A82626E
:10B39C00264AC262264A026322683832FEF7ECFF64
:10B3AC000028B3D12268D36843F48063D6E7082D14
:10B3BC0013D184F84020E06A1B4A82621B4AC262A5
:10B3CC001B4A026322683C32FEF7D6FF00289DD14F
:10B3DC002268D36843F40063C0E70C2D84F8412045
:10B3EC0094D1206B104A8262104AC262104A0263E6
:10B3FC0022684032FEF7C0FF002887D12268D3684C
:10B40C0043F48053AAE7436C43F400434364B1E72D
:10B41C00094B9842AED003F580639842AAD00368DA
:10B42C0043F001030360AAE737AF0008A3AF00089D
:10B43C00DDAF0008002C014000040040FFF742BFC4
:10B44C0030B590F83C300246012B4FF0020022D070
:10B45C00136882F83D005C680D6824F070042C437E
:10B46C0098685C600C4CA3420AD0B3F1804F07D0B3
:10B47C00A4F59434A34203D004F58064A34204D110
:10B48C00496820F08000014399600123002082F874
:10B49C003D3082F83C0030BD002C014090F83C302F
:10B4AC000246012B1ED0CB68886823F440730343FB
:10B4BC00486823F480630343086823F40063034360
:10B4CC00086923F480530343486923F4005303436E
:10B4DC000020C96923F480430B4311684B6482F844
:10B4EC003C0070470220704710B504460368C168E1
:10B4FC001A6922F440520A431A6182680069D968B9
:10B50C000243606921F4B05121F00C0102430A435B
:10B51C00DA605A69A16922F440720A435A610E4AF0
:10B52C00934215D1FFF77CFC1923434362682068D2
:10B53C009200B3FBF2F36422B3FBF2F102FB113382
:10B54C001B013233B3FBF2F303EB0113836010BD29
:10B55C00FFF756FCE8E700BF0038014010B5044681
:10B56C0048B390F8413003F0FF021BB980F840203B
:10B57C00FEF7AEFA2423226884F84130D3682046C3
:10B58C0023F40053D360FFF7AFFF236800201A6940
:10B59C0022F490421A615A6922F02A025A61DA683E
:10B5AC0042F40052DA602023606484F8413084F85D
:10B5BC004230606310BD0120FCE703460244934215
:10B5CC0000D1704703F8011BF9E7000070B50026A5
:10B5DC000C4D0D4C641BA410A64209D100F028F8A8
:10B5EC0000260A4D0A4C641BA410A64205D170BD5E
:10B5FC0055F8043B98470136EEE755F8043B98475D
:10B60C000136F2E780BA000880BA000880BA000858
:10B61C0084BA00080A44914200F1FF3300D170470C
:10B62C0010B511F8014B914203F8014FF9D110BD3F
:10B63C00F8B500BFF8BC08BC9E467047F8B500BF13
:08B64C00F8BC08BC9E467047E3
:10B6540000000000963007772C610EEEBA5109996C
:10B6640019C46D078FF46A7035A563E9A395649EC8
:10B674003288DB0EA4B8DC791EE9D5E088D9D297EC
:10B684002B4CB609BD7CB17E072DB8E7911DBF9048
:10B694006410B71DF220B06A4871B9F3DE41BE846C
:10B6A4007DD4DA1AEBE4DD6D51B5D4F4C785D383C8
:10B6B40056986C13C0A86B647AF962FDECC9658A6C
:10B6C4004F5C0114D96C0663633D0FFAF50D088DC8
:10B6D400C8206E3B5E10694CE44160D5727167A26C
:10B6E400D1E4033C47D4044BFD850DD26BB50AA5C8
:10B6F400FAA8B5356C98B242D6C9BBDB40F9BCACEC
:10B70400E36CD832755CDF45CF0DD6DC593DD1AB47
:10B71400AC30D9263A00DE518051D7C81661D0BF6B
:10B72400B5F4B42123C4B3569995BACF0FA5BDB8C7
:10B734009EB802280888055FB2D90CC624E90BB16B
:10B74400877C6F2F114C6858AB1D61C13D2D66B6C7
:10B754009041DC760671DB01BC20D2982A10D5EF2B
:10B764008985B1711FB5B606A5E4BF9F33D4B8E887
:10B77400A2C9077834F9000F8EA8099618980EE12B
:10B78400BB0D6A7F2D3D6D08976C6491015C63E687
:10B79400F4516B6B62616C1CD83065854E0062F2AB
:10B7A400ED95066C7BA5011BC1F4088257C40FF507
:10B7B400C6D9B06550E9B712EAB8BE8B7C88B9FC2B
:10B7C400DF1DDD62492DDA15F37CD38C654CD4FB87
:10B7D4005861B24DCE51B53A7400BCA3E230BBD42B
:10B7E40041A5DF4AD795D83D6DC4D1A4FBF4D6D387
:10B7F4006AE96943FCD96E34468867ADD0B860DA2B
:10B80400732D0444E51D03335F4C0AAAC97C0DDD86
:10B814003C710550AA41022710100BBE86200CC9AA
:10B8240025B56857B3856F2009D466B99FE461CE06
:10B834000EF9DE5E98C9D9292298D0B0B4A8D7C72A
:10B84400173DB359810DB42E3B5CBDB7AD6CBAC086
:10B854002083B8EDB6B3BF9A0CE2B6039AD2B174A2
:10B864003947D5EAAF77D29D1526DB048316DC73FE
:10B87400120B63E3843B64943E6A6D0DA85A6A7AA2
:10B884000BCF0EE49DFF099327AE000AB19E077DFE
:10B8940044930FF0D2A3088768F2011EFEC2066922
:10B8A4005D5762F7CB67658071366C19E7066B6E7E
:10B8B400761BD4FEE02BD3895A7ADA10CC4ADD67A2
:10B8C4006FDFB9F9F9EFBE8E43BEB717D58EB060FE
:10B8D400E8A3D6D67E93D1A1C4C2D83852F2DF4FA2
:10B8E400F167BBD16757BCA6DD06B53F4B36B248FE
:10B8F400DA2B0DD84C1B0AAFF64A0336607A0441A2
:10B90400C3EF60DF55DF67A8EF8E6E3179BE6946FD
:10B914008CB361CB1A8366BCA0D26F2536E2685221
:10B9240095770CCC03470BBBB91602222F2605557D
:10B93400BE3BBAC5280BBDB2925AB42B046AB35CA1
:10B94400A7FFD7C231CFD0B58B9ED92C1DAEDE5BFD
:10B95400B0C2649B26F263EC9CA36A750A936D02E1
:10B96400A906099C3F360EEB85670772135700053D
:10B97400824ABF95147AB8E2AE2BB17B381BB60C61
:10B984009B8ED2920DBED5E5B7EFDC7C21DFDB0BBD
:10B99400D4D2D38642E2D4F1F8B3DD686E83DA1FE1
:10B9A400CD16BE815B26B9F6E177B06F7747B7183D
:10B9B400E65A0888706A0FFFCA3B06665C0B0111E1
:10B9C400FF9E658F69AE62F8D3FF6B6145CF6C163D
:10B9D40078E20AA0EED20DD75483044EC2B30339E1
:10B9E400612667A7F71660D04D476949DB776E3E3D
:10B9F4004A6AD1AEDC5AD6D9660BDF40F03BD83761
:10BA040053AEBCA9C59EBBDE7FCFB247E9FFB530BC
:10BA14001CF2BDBD8AC2BACA3093B353A6A3B424E0
:10BA24000536D0BA9306D7CD2957DE54BF67D9233C
:10BA34002E7A66B3B84A61C4021B685D942B6F2AE0
:10BA440037BE0BB4A18E0CC31BDF055A8DEF022D3C
:10BA540000000000010203040000000000000000D8
:10BA6400010203040607080901020203040506078C
:0CBA740008090A0B0C0D0E0F101000004A
:04BA80003185000804
:04BA84000D85000824
:10BA8800FFFFFFFFFFFFFFFFFFFF0000004401086B
:0CBA980000127A00010000001000000005
:0400000508009B3D17
:00000001FF
